{
  "contractName": "SupplyChain",
  "abi": [
    {
      "anonymous": false,
      "inputs": [
        {
          "indexed": true,
          "internalType": "uint32",
          "name": "prodId",
          "type": "uint32"
        }
      ],
      "name": "Transfer",
      "type": "event"
    },
    {
      "inputs": [],
      "name": "p_id",
      "outputs": [
        {
          "internalType": "uint32",
          "name": "",
          "type": "uint32"
        }
      ],
      "stateMutability": "view",
      "type": "function",
      "constant": true
    },
    {
      "inputs": [
        {
          "internalType": "uint32",
          "name": "",
          "type": "uint32"
        }
      ],
      "name": "participants",
      "outputs": [
        {
          "internalType": "string",
          "name": "userName",
          "type": "string"
        },
        {
          "internalType": "string",
          "name": "password",
          "type": "string"
        },
        {
          "internalType": "string",
          "name": "participantType",
          "type": "string"
        },
        {
          "internalType": "address",
          "name": "participantAddress",
          "type": "address"
        }
      ],
      "stateMutability": "view",
      "type": "function",
      "constant": true
    },
    {
      "inputs": [
        {
          "internalType": "uint32",
          "name": "",
          "type": "uint32"
        },
        {
          "internalType": "uint256",
          "name": "",
          "type": "uint256"
        }
      ],
      "name": "productTrack",
      "outputs": [
        {
          "internalType": "uint32",
          "name": "",
          "type": "uint32"
        }
      ],
      "stateMutability": "view",
      "type": "function",
      "constant": true
    },
    {
      "inputs": [
        {
          "internalType": "uint32",
          "name": "",
          "type": "uint32"
        }
      ],
      "name": "products",
      "outputs": [
        {
          "internalType": "string",
          "name": "modelNumber",
          "type": "string"
        },
        {
          "internalType": "string",
          "name": "partNumber",
          "type": "string"
        },
        {
          "internalType": "string",
          "name": "serialNumber",
          "type": "string"
        },
        {
          "internalType": "address",
          "name": "productOwner",
          "type": "address"
        },
        {
          "internalType": "uint32",
          "name": "cost",
          "type": "uint32"
        },
        {
          "internalType": "uint32",
          "name": "mfgTimeStamp",
          "type": "uint32"
        }
      ],
      "stateMutability": "view",
      "type": "function",
      "constant": true
    },
    {
      "inputs": [],
      "name": "r_id",
      "outputs": [
        {
          "internalType": "uint32",
          "name": "",
          "type": "uint32"
        }
      ],
      "stateMutability": "view",
      "type": "function",
      "constant": true
    },
    {
      "inputs": [
        {
          "internalType": "uint32",
          "name": "",
          "type": "uint32"
        }
      ],
      "name": "registrations",
      "outputs": [
        {
          "internalType": "uint32",
          "name": "productId",
          "type": "uint32"
        },
        {
          "internalType": "uint32",
          "name": "ownerId",
          "type": "uint32"
        },
        {
          "internalType": "uint32",
          "name": "trxTimeStamp",
          "type": "uint32"
        },
        {
          "internalType": "address",
          "name": "productOwner",
          "type": "address"
        }
      ],
      "stateMutability": "view",
      "type": "function",
      "constant": true
    },
    {
      "inputs": [],
      "name": "u_id",
      "outputs": [
        {
          "internalType": "uint32",
          "name": "",
          "type": "uint32"
        }
      ],
      "stateMutability": "view",
      "type": "function",
      "constant": true
    },
    {
      "inputs": [
        {
          "internalType": "string",
          "name": "pName",
          "type": "string"
        },
        {
          "internalType": "string",
          "name": "pPass",
          "type": "string"
        },
        {
          "internalType": "string",
          "name": "pType",
          "type": "string"
        },
        {
          "internalType": "address",
          "name": "pAdd",
          "type": "address"
        }
      ],
      "name": "createParticipant",
      "outputs": [
        {
          "internalType": "uint32",
          "name": "",
          "type": "uint32"
        }
      ],
      "stateMutability": "nonpayable",
      "type": "function"
    },
    {
      "inputs": [
        {
          "internalType": "uint32",
          "name": "pId",
          "type": "uint32"
        }
      ],
      "name": "getParticipantDetails",
      "outputs": [
        {
          "internalType": "string",
          "name": "",
          "type": "string"
        },
        {
          "internalType": "address",
          "name": "",
          "type": "address"
        },
        {
          "internalType": "string",
          "name": "",
          "type": "string"
        }
      ],
      "stateMutability": "view",
      "type": "function",
      "constant": true
    },
    {
      "inputs": [
        {
          "internalType": "uint32",
          "name": "participantId",
          "type": "uint32"
        },
        {
          "internalType": "string",
          "name": "pModelNum",
          "type": "string"
        },
        {
          "internalType": "string",
          "name": "pPartNum",
          "type": "string"
        },
        {
          "internalType": "string",
          "name": "pSerialNum",
          "type": "string"
        },
        {
          "internalType": "uint32",
          "name": "pCost",
          "type": "uint32"
        }
      ],
      "name": "createProduct",
      "outputs": [
        {
          "internalType": "uint32",
          "name": "",
          "type": "uint32"
        }
      ],
      "stateMutability": "nonpayable",
      "type": "function"
    },
    {
      "inputs": [
        {
          "internalType": "uint32",
          "name": "prodId",
          "type": "uint32"
        }
      ],
      "name": "getProductDetails",
      "outputs": [
        {
          "internalType": "string",
          "name": "",
          "type": "string"
        },
        {
          "internalType": "string",
          "name": "",
          "type": "string"
        },
        {
          "internalType": "string",
          "name": "",
          "type": "string"
        },
        {
          "internalType": "uint32",
          "name": "",
          "type": "uint32"
        },
        {
          "internalType": "address",
          "name": "",
          "type": "address"
        },
        {
          "internalType": "uint32",
          "name": "",
          "type": "uint32"
        }
      ],
      "stateMutability": "view",
      "type": "function",
      "constant": true
    },
    {
      "inputs": [
        {
          "internalType": "uint32",
          "name": "participantId",
          "type": "uint32"
        },
        {
          "internalType": "uint32",
          "name": "prodId",
          "type": "uint32"
        }
      ],
      "name": "transferToParticipant",
      "outputs": [
        {
          "internalType": "bool",
          "name": "",
          "type": "bool"
        }
      ],
      "stateMutability": "nonpayable",
      "type": "function"
    },
    {
      "inputs": [
        {
          "internalType": "uint32",
          "name": "prodId",
          "type": "uint32"
        }
      ],
      "name": "getProductTrack",
      "outputs": [
        {
          "internalType": "uint32[]",
          "name": "",
          "type": "uint32[]"
        }
      ],
      "stateMutability": "view",
      "type": "function",
      "constant": true
    },
    {
      "inputs": [
        {
          "internalType": "uint32",
          "name": "regId",
          "type": "uint32"
        }
      ],
      "name": "getRegistrationDetails",
      "outputs": [
        {
          "internalType": "uint32",
          "name": "",
          "type": "uint32"
        },
        {
          "internalType": "uint32",
          "name": "",
          "type": "uint32"
        },
        {
          "internalType": "address",
          "name": "",
          "type": "address"
        },
        {
          "internalType": "uint32",
          "name": "",
          "type": "uint32"
        }
      ],
      "stateMutability": "view",
      "type": "function",
      "constant": true
    }
  ],
  "bytecode": "0x608060405260008060006101000a81548163ffffffff021916908363ffffffff16021790555060008060046101000a81548163ffffffff021916908363ffffffff16021790555060008060086101000a81548163ffffffff021916908363ffffffff16021790555034801561007357600080fd5b50612271806100836000396000f3fe608060405234801561001057600080fd5b50600436106100ea5760003560e01c806383a32c551161008c578063b9d93d5f11610066578063b9d93d5f146102b8578063bf712fd6146102eb578063e9f06d2b14610320578063f79e547b1461033e576100ea565b806383a32c55146102375780639dfb56ac1461026a578063a8997d2e14610288576100ea565b8063416b498a116100c8578063416b498a146101725780635617f01e146101a25780636e8c4b46146101d45780637d0a9ac914610204576100ea565b8063043ba46a146100ef5780631a0748021461010d57806328d5b69a1461013d575b600080fd5b6100f761036e565b6040516101049190611eaa565b60405180910390f35b61012760048036038101906101229190611ae1565b610382565b6040516101349190611eaa565b60405180910390f35b610157600480360381019061015291906119e5565b6103cb565b60405161016996959493929190611e34565b60405180910390f35b61018c60048036038101906101879190611b21565b61069d565b6040516101999190611d04565b60405180910390f35b6101bc60048036038101906101b791906119e5565b610bcf565b6040516101cb93929190611d1f565b60405180910390f35b6101ee60048036038101906101e9919061192a565b610d81565b6040516101fb9190611eaa565b60405180910390f35b61021e600480360381019061021991906119e5565b610ed8565b60405161022e9493929190611d64565b60405180910390f35b610251600480360381019061024c91906119e5565b6110c0565b6040516102619493929190611f0a565b60405180910390f35b610272611140565b60405161027f9190611eaa565b60405180910390f35b6102a2600480360381019061029d91906119e5565b611156565b6040516102af9190611ce2565b60405180910390f35b6102d260048036038101906102cd91906119e5565b6111f9565b6040516102e29493929190611ec5565b60405180910390f35b610305600480360381019061030091906119e5565b611319565b60405161031796959493929190611dbe565b60405180910390f35b61032861152d565b6040516103359190611eaa565b60405180910390f35b61035860048036038101906103539190611a12565b611543565b6040516103659190611eaa565b60405180910390f35b60008054906101000a900463ffffffff1681565b6004602052816000526040600020818154811061039e57600080fd5b9060005260206000209060089182820401919006600402915091509054906101000a900463ffffffff1681565b60608060606000806000600160008863ffffffff1663ffffffff168152602001908152602001600020600001600160008963ffffffff1663ffffffff168152602001908152602001600020600101600160008a63ffffffff1663ffffffff168152602001908152602001600020600201600160008b63ffffffff1663ffffffff16815260200190815260200160002060030160149054906101000a900463ffffffff16600160008c63ffffffff1663ffffffff16815260200190815260200160002060030160009054906101000a900473ffffffffffffffffffffffffffffffffffffffff16600160008d63ffffffff1663ffffffff16815260200190815260200160002060030160189054906101000a900463ffffffff168580546104f0906120b4565b80601f016020809104026020016040519081016040528092919081815260200182805461051c906120b4565b80156105695780601f1061053e57610100808354040283529160200191610569565b820191906000526020600020905b81548152906001019060200180831161054c57829003601f168201915b5050505050955084805461057c906120b4565b80601f01602080910402602001604051908101604052809291908181526020018280546105a8906120b4565b80156105f55780601f106105ca576101008083540402835291602001916105f5565b820191906000526020600020905b8154815290600101906020018083116105d857829003601f168201915b50505050509450838054610608906120b4565b80601f0160208091040260200160405190810160405280929190818152602001828054610634906120b4565b80156106815780601f1061065657610100808354040283529160200191610681565b820191906000526020600020905b81548152906001019060200180831161066457829003601f168201915b5050505050935095509550955095509550955091939550919395565b600081600160008263ffffffff1663ffffffff16815260200190815260200160002060030160009054906101000a900473ffffffffffffffffffffffffffffffffffffffff1673ffffffffffffffffffffffffffffffffffffffff163373ffffffffffffffffffffffffffffffffffffffff161461071a57600080fd5b6000600260008663ffffffff1663ffffffff168152602001908152602001600020604051806080016040529081600082018054610756906120b4565b80601f0160208091040260200160405190810160405280929190818152602001828054610782906120b4565b80156107cf5780601f106107a4576101008083540402835291602001916107cf565b820191906000526020600020905b8154815290600101906020018083116107b257829003601f168201915b505050505081526020016001820180546107e8906120b4565b80601f0160208091040260200160405190810160405280929190818152602001828054610814906120b4565b80156108615780601f1061083657610100808354040283529160200191610861565b820191906000526020600020905b81548152906001019060200180831161084457829003601f168201915b5050505050815260200160028201805461087a906120b4565b80601f01602080910402602001604051908101604052809291908181526020018280546108a6906120b4565b80156108f35780601f106108c8576101008083540402835291602001916108f3565b820191906000526020600020905b8154815290600101906020018083116108d657829003601f168201915b505050505081526020016003820160009054906101000a900473ffffffffffffffffffffffffffffffffffffffff1673ffffffffffffffffffffffffffffffffffffffff1673ffffffffffffffffffffffffffffffffffffffff16815250509050600080600881819054906101000a900463ffffffff168092919061097790612117565b91906101000a81548163ffffffff021916908363ffffffff160217905550905084600360008363ffffffff1663ffffffff16815260200190815260200160002060000160006101000a81548163ffffffff021916908363ffffffff1602179055508160600151600360008363ffffffff1663ffffffff168152602001908152602001600020600001600c6101000a81548173ffffffffffffffffffffffffffffffffffffffff021916908373ffffffffffffffffffffffffffffffffffffffff16021790555085600360008363ffffffff1663ffffffff16815260200190815260200160002060000160046101000a81548163ffffffff021916908363ffffffff16021790555042600360008363ffffffff1663ffffffff16815260200190815260200160002060000160086101000a81548163ffffffff021916908363ffffffff1602179055508160600151600160008763ffffffff1663ffffffff16815260200190815260200160002060030160006101000a81548173ffffffffffffffffffffffffffffffffffffffff021916908373ffffffffffffffffffffffffffffffffffffffff160217905550600460008663ffffffff1663ffffffff1681526020019081526020016000208190806001815401808255809150506001900390600052602060002090600891828204019190066004029091909190916101000a81548163ffffffff021916908363ffffffff1602179055508463ffffffff167f4a7c2ed8675655246e11580786ba8a73e92e426d177368a8697ead49925146c260405160405180910390a26001935050505092915050565b606060006060600260008563ffffffff1663ffffffff168152602001908152602001600020600001600260008663ffffffff1663ffffffff16815260200190815260200160002060030160009054906101000a900473ffffffffffffffffffffffffffffffffffffffff16600260008763ffffffff1663ffffffff168152602001908152602001600020600201828054610c68906120b4565b80601f0160208091040260200160405190810160405280929190818152602001828054610c94906120b4565b8015610ce15780601f10610cb657610100808354040283529160200191610ce1565b820191906000526020600020905b815481529060010190602001808311610cc457829003601f168201915b50505050509250808054610cf4906120b4565b80601f0160208091040260200160405190810160405280929190818152602001828054610d20906120b4565b8015610d6d5780601f10610d4257610100808354040283529160200191610d6d565b820191906000526020600020905b815481529060010190602001808311610d5057829003601f168201915b505050505090509250925092509193909250565b6000806000600481819054906101000a900463ffffffff1680929190610da690612117565b91906101000a81548163ffffffff021916908363ffffffff160217905550905085600260008363ffffffff1663ffffffff1681526020019081526020016000206000019080519060200190610dfc9291906117d8565b5084600260008363ffffffff1663ffffffff1681526020019081526020016000206001019080519060200190610e339291906117d8565b5083600260008363ffffffff1663ffffffff1681526020019081526020016000206002019080519060200190610e6a9291906117d8565b5082600260008363ffffffff1663ffffffff16815260200190815260200160002060030160006101000a81548173ffffffffffffffffffffffffffffffffffffffff021916908373ffffffffffffffffffffffffffffffffffffffff16021790555080915050949350505050565b6002602052806000526040600020600091509050806000018054610efb906120b4565b80601f0160208091040260200160405190810160405280929190818152602001828054610f27906120b4565b8015610f745780601f10610f4957610100808354040283529160200191610f74565b820191906000526020600020905b815481529060010190602001808311610f5757829003601f168201915b505050505090806001018054610f89906120b4565b80601f0160208091040260200160405190810160405280929190818152602001828054610fb5906120b4565b80156110025780601f10610fd757610100808354040283529160200191611002565b820191906000526020600020905b815481529060010190602001808311610fe557829003601f168201915b505050505090806002018054611017906120b4565b80601f0160208091040260200160405190810160405280929190818152602001828054611043906120b4565b80156110905780601f1061106557610100808354040283529160200191611090565b820191906000526020600020905b81548152906001019060200180831161107357829003601f168201915b5050505050908060030160009054906101000a900473ffffffffffffffffffffffffffffffffffffffff16905084565b60036020528060005260406000206000915090508060000160009054906101000a900463ffffffff16908060000160049054906101000a900463ffffffff16908060000160089054906101000a900463ffffffff169080600001600c9054906101000a900473ffffffffffffffffffffffffffffffffffffffff16905084565b600060089054906101000a900463ffffffff1681565b6060600460008363ffffffff1663ffffffff1681526020019081526020016000208054806020026020016040519081016040528092919081815260200182805480156111ed57602002820191906000526020600020906000905b82829054906101000a900463ffffffff1663ffffffff16815260200190600401906020826003010492830192600103820291508084116111b05790505b50505050509050919050565b6000806000806000600360008763ffffffff1663ffffffff1681526020019081526020016000206040518060800160405290816000820160009054906101000a900463ffffffff1663ffffffff1663ffffffff1681526020016000820160049054906101000a900463ffffffff1663ffffffff1663ffffffff1681526020016000820160089054906101000a900463ffffffff1663ffffffff1663ffffffff16815260200160008201600c9054906101000a900473ffffffffffffffffffffffffffffffffffffffff1673ffffffffffffffffffffffffffffffffffffffff1673ffffffffffffffffffffffffffffffffffffffff1681525050905080600001518160200151826060015183604001519450945094509450509193509193565b600160205280600052604060002060009150905080600001805461133c906120b4565b80601f0160208091040260200160405190810160405280929190818152602001828054611368906120b4565b80156113b55780601f1061138a576101008083540402835291602001916113b5565b820191906000526020600020905b81548152906001019060200180831161139857829003601f168201915b5050505050908060010180546113ca906120b4565b80601f01602080910402602001604051908101604052809291908181526020018280546113f6906120b4565b80156114435780601f1061141857610100808354040283529160200191611443565b820191906000526020600020905b81548152906001019060200180831161142657829003601f168201915b505050505090806002018054611458906120b4565b80601f0160208091040260200160405190810160405280929190818152602001828054611484906120b4565b80156114d15780601f106114a6576101008083540402835291602001916114d1565b820191906000526020600020905b8154815290600101906020018083116114b457829003601f168201915b5050505050908060030160009054906101000a900473ffffffffffffffffffffffffffffffffffffffff16908060030160149054906101000a900463ffffffff16908060030160189054906101000a900463ffffffff16905086565b600060049054906101000a900463ffffffff1681565b60007fcec9b8e63c868f2f7f30368f1583e7aa39ae80e163d57a859fa5a90244b28ac1600260008863ffffffff1663ffffffff1681526020019081526020016000206002016040516020016115989190611ccb565b6040516020818303038152906040528051906020012014156117ca57600080600081819054906101000a900463ffffffff16809291906115d790612117565b91906101000a81548163ffffffff021916908363ffffffff160217905550905085600160008363ffffffff1663ffffffff168152602001908152602001600020600001908051906020019061162d9291906117d8565b5084600160008363ffffffff1663ffffffff16815260200190815260200160002060010190805190602001906116649291906117d8565b5083600160008363ffffffff1663ffffffff168152602001908152602001600020600201908051906020019061169b9291906117d8565b50600260008863ffffffff1663ffffffff16815260200190815260200160002060030160009054906101000a900473ffffffffffffffffffffffffffffffffffffffff16600160008363ffffffff1663ffffffff16815260200190815260200160002060030160006101000a81548173ffffffffffffffffffffffffffffffffffffffff021916908373ffffffffffffffffffffffffffffffffffffffff16021790555082600160008363ffffffff1663ffffffff16815260200190815260200160002060030160146101000a81548163ffffffff021916908363ffffffff16021790555042600160008363ffffffff1663ffffffff16815260200190815260200160002060030160186101000a81548163ffffffff021916908363ffffffff160217905550809150506117cf565b600090505b95945050505050565b8280546117e4906120b4565b90600052602060002090601f016020900481019282611806576000855561184d565b82601f1061181f57805160ff191683800117855561184d565b8280016001018555821561184d579182015b8281111561184c578251825591602001919060010190611831565b5b50905061185a919061185e565b5090565b5b8082111561187757600081600090555060010161185f565b5090565b600061188e61188984611f74565b611f4f565b9050828152602081018484840111156118aa576118a96121d6565b5b6118b5848285612072565b509392505050565b6000813590506118cc816121f6565b92915050565b600082601f8301126118e7576118e66121d1565b5b81356118f784826020860161187b565b91505092915050565b60008135905061190f8161220d565b92915050565b60008135905061192481612224565b92915050565b60008060008060808587031215611944576119436121e0565b5b600085013567ffffffffffffffff811115611962576119616121db565b5b61196e878288016118d2565b945050602085013567ffffffffffffffff81111561198f5761198e6121db565b5b61199b878288016118d2565b935050604085013567ffffffffffffffff8111156119bc576119bb6121db565b5b6119c8878288016118d2565b92505060606119d9878288016118bd565b91505092959194509250565b6000602082840312156119fb576119fa6121e0565b5b6000611a0984828501611915565b91505092915050565b600080600080600060a08688031215611a2e57611a2d6121e0565b5b6000611a3c88828901611915565b955050602086013567ffffffffffffffff811115611a5d57611a5c6121db565b5b611a69888289016118d2565b945050604086013567ffffffffffffffff811115611a8a57611a896121db565b5b611a96888289016118d2565b935050606086013567ffffffffffffffff811115611ab757611ab66121db565b5b611ac3888289016118d2565b9250506080611ad488828901611915565b9150509295509295909350565b60008060408385031215611af857611af76121e0565b5b6000611b0685828601611915565b9250506020611b1785828601611900565b9150509250929050565b60008060408385031215611b3857611b376121e0565b5b6000611b4685828601611915565b9250506020611b5785828601611915565b9150509250929050565b6000611b6d8383611cad565b60208301905092915050565b611b828161201a565b82525050565b6000611b9382611fca565b611b9d8185611fed565b9350611ba883611fa5565b8060005b83811015611bd9578151611bc08882611b61565b9750611bcb83611fe0565b925050600181019050611bac565b5085935050505092915050565b611bef8161202c565b82525050565b6000611c0082611fd5565b611c0a8185611ffe565b9350611c1a818560208601612081565b611c23816121e5565b840191505092915050565b60008154611c3b816120b4565b611c45818661200f565b94506001821660008114611c605760018114611c7157611ca4565b60ff19831686528186019350611ca4565b611c7a85611fb5565b60005b83811015611c9c57815481890152600182019150602081019050611c7d565b838801955050505b50505092915050565b611cb681612062565b82525050565b611cc581612062565b82525050565b6000611cd78284611c2e565b915081905092915050565b60006020820190508181036000830152611cfc8184611b88565b905092915050565b6000602082019050611d196000830184611be6565b92915050565b60006060820190508181036000830152611d398186611bf5565b9050611d486020830185611b79565b8181036040830152611d5a8184611bf5565b9050949350505050565b60006080820190508181036000830152611d7e8187611bf5565b90508181036020830152611d928186611bf5565b90508181036040830152611da68185611bf5565b9050611db56060830184611b79565b95945050505050565b600060c0820190508181036000830152611dd88189611bf5565b90508181036020830152611dec8188611bf5565b90508181036040830152611e008187611bf5565b9050611e0f6060830186611b79565b611e1c6080830185611cbc565b611e2960a0830184611cbc565b979650505050505050565b600060c0820190508181036000830152611e4e8189611bf5565b90508181036020830152611e628188611bf5565b90508181036040830152611e768187611bf5565b9050611e856060830186611cbc565b611e926080830185611b79565b611e9f60a0830184611cbc565b979650505050505050565b6000602082019050611ebf6000830184611cbc565b92915050565b6000608082019050611eda6000830187611cbc565b611ee76020830186611cbc565b611ef46040830185611b79565b611f016060830184611cbc565b95945050505050565b6000608082019050611f1f6000830187611cbc565b611f2c6020830186611cbc565b611f396040830185611cbc565b611f466060830184611b79565b95945050505050565b6000611f59611f6a565b9050611f6582826120e6565b919050565b6000604051905090565b600067ffffffffffffffff821115611f8f57611f8e6121a2565b5b611f98826121e5565b9050602081019050919050565b6000819050602082019050919050565b60008190508160005260206000209050919050565b600081519050919050565b600081519050919050565b6000602082019050919050565b600082825260208201905092915050565b600082825260208201905092915050565b600081905092915050565b600061202582612038565b9050919050565b60008115159050919050565b600073ffffffffffffffffffffffffffffffffffffffff82169050919050565b6000819050919050565b600063ffffffff82169050919050565b82818337600083830152505050565b60005b8381101561209f578082015181840152602081019050612084565b838111156120ae576000848401525b50505050565b600060028204905060018216806120cc57607f821691505b602082108114156120e0576120df612173565b5b50919050565b6120ef826121e5565b810181811067ffffffffffffffff8211171561210e5761210d6121a2565b5b80604052505050565b600061212282612062565b915063ffffffff82141561213957612138612144565b5b600182019050919050565b7f4e487b7100000000000000000000000000000000000000000000000000000000600052601160045260246000fd5b7f4e487b7100000000000000000000000000000000000000000000000000000000600052602260045260246000fd5b7f4e487b7100000000000000000000000000000000000000000000000000000000600052604160045260246000fd5b600080fd5b600080fd5b600080fd5b600080fd5b6000601f19601f8301169050919050565b6121ff8161201a565b811461220a57600080fd5b50565b61221681612058565b811461222157600080fd5b50565b61222d81612062565b811461223857600080fd5b5056fea2646970667358221220150d93a12b0b457d8c2933ce1cead6f157852216cc53210a4214210d73b0f9cb64736f6c63430008060033",
  "immutableReferences": {},
  "source": "// SPDX-License-Identifier: MIT\npragma solidity >=0.4.22 <0.9.0;\n\ncontract SupplyChain {\n    uint32 public p_id = 0;\n    uint32 public u_id = 0;\n    uint32 public r_id = 0;\n\n    struct product {\n        string modelNumber;\n        string partNumber;\n        string serialNumber;\n        address productOwner;\n        uint32 cost;\n        uint32 mfgTimeStamp;\n    }\n\n    mapping (uint32 => product) public products;\n\n    struct participant {\n        string userName;\n        string password;\n        string participantType;\n        address participantAddress;\n    }\n\n    mapping (uint32 => participant) public participants;\n\n    struct registration {\n        uint32 productId;\n        uint32 ownerId;\n        uint32 trxTimeStamp;\n        address productOwner;\n    }\n\n    mapping (uint32 => registration) public registrations; // registrations by r_id\n    mapping (uint32 => uint32[]) public productTrack; // registrations by p_id\n\n    event Transfer(uint32 indexed prodId);\n\n    function createParticipant(\n        string memory pName, \n        string memory pPass, \n        string memory pType, \n        address pAdd) public returns (uint32) {\n\n        uint32 userId = u_id++;\n\n        participants[userId].userName = pName;\n        participants[userId].password = pPass;\n        participants[userId].participantType = pType;\n        participants[userId].participantAddress = pAdd;\n\n        return userId;\n    }\n\n    function getParticipantDetails(uint32 pId) public view returns (string memory, address, string memory) {\n        return (\n            participants[pId].userName, \n            participants[pId].participantAddress, \n            participants[pId].participantType\n        );\n    }\n\n    function createProduct(\n        uint32 participantId, \n        string memory pModelNum, \n        string memory pPartNum, \n        string memory pSerialNum, \n        uint32 pCost) public returns (uint32) {\n\n        if (keccak256(abi.encodePacked(participants[participantId].participantType)) == keccak256(\"Manufacturer\")) {\n            uint32 prodId = p_id++;\n\n            products[prodId].modelNumber = pModelNum;\n            products[prodId].partNumber = pPartNum;\n            products[prodId].serialNumber = pSerialNum;\n            products[prodId].productOwner = participants[participantId].participantAddress;\n            products[prodId].cost = pCost;\n            products[prodId].mfgTimeStamp = uint32(block.timestamp);\n\n            return prodId;\n        }\n        \n        return 0;\n    }\n\n    function getProductDetails(uint32 prodId) public view returns (string memory, string memory, string memory, uint32, address, uint32) {\n        return (\n            products[prodId].modelNumber, \n            products[prodId].partNumber, \n            products[prodId].serialNumber, \n            products[prodId].cost, \n            products[prodId].productOwner, \n            products[prodId].mfgTimeStamp\n        );\n    }\n\n    modifier onlyOwner(uint32 prodId) {\n        require(msg.sender == products[prodId].productOwner);\n        _;\n    }\n\n    function transferToParticipant(\n        uint32 participantId,\n        uint32 prodId) onlyOwner(prodId) public returns (bool) {\n        \n        participant memory p = participants[participantId];\n\n        uint32 regId = r_id++;\n\n        registrations[regId].productId = prodId;\n        registrations[regId].productOwner = p.participantAddress;\n        registrations[regId].ownerId = participantId;\n        registrations[regId].trxTimeStamp = uint32(block.timestamp);\n\n        products[prodId].productOwner = p.participantAddress;\n\n        productTrack[prodId].push(regId);\n\n        emit Transfer(prodId);\n\n        return true;\n    }\n\n    function getProductTrack(uint32 prodId) external view returns (uint32[] memory) {\n        return productTrack[prodId];\n    }\n\n    function getRegistrationDetails(uint32 regId) public view returns (uint32, uint32, address, uint32) {\n        \n        registration memory r = registrations[regId];\n\n        return (r.productId, r.ownerId, r.productOwner, r.trxTimeStamp);\n    }\n}",
  "sourcePath": "/home/sandeep/SupplyChain/contracts/SupplyChain.sol",
  "compiler": {
    "name": "solc",
    "version": "0.8.6+commit.11564f7e.Emscripten.clang"
  },
  "schemaVersion": "3.4.1",
  "updatedAt": "2021-07-29T13:07:19.182Z",
  "networkType": "ethereum",
  "devdoc": {
    "kind": "dev",
    "methods": {},
    "version": 1
  },
  "userdoc": {
    "kind": "user",
    "methods": {},
    "version": 1
  }
}